:100000000C9437000C942A020C942A020C942A02B5
:100010000C942A020C942A020C942A020C942A02B0
:100020000C942A020C942A020C942A020C942A02A0
:100030000C942A020C942A020C942A020C942A0290
:100040000C942A020C942A020C942A020C942A0280
:100050000C942A020C942A020C942A020C942A0270
:100060000C942A020C942A0201000104800011243D
:100070001FBECFEFD8E0DEBFCDBFE8E6F0E040E046
:1000800017C0B591A59135912591059107FD0CC03B
:1000900095918591EF01F92FE82F05900D92A21708
:1000A000B307D9F7FE0104C01D92A217B307E1F709
:1000B000ED36F40731F70E946D000C945F00F89460
:0200C000FFCF70
:1000C2004572726F72210044697374616E636520B8
:0700D2003D200020636D00DA
:1000DA00CF93DF9300D000D0CDB7DEB70E94BC012A
:1000EA0087EA91E60197F1F700C000000E94260214
:1000FA0087B18C6387B98AB184608AB90E941C026D
:10010A000E94D500019651F061E081E00E949C01B5
:10011A0062EC70E080E00E942B01F0CF84E190E075
:10012A009093030180930201809100019091010153
:10013A00449711F00E94040261E081E00E949C0150
:10014A0069EC70E080E00E942B0161E08CE00E9483
:10015A009C014AE08E010F5F1F4FB8018091020196
:10016A00909103010E941102B80180E80E942B01BC
:10017A0061E08EE00E949C0165ED70E080E00E94E3
:10018A002B018091020190910301909301018093C8
:10019A0000018BE49DE10197F1F700C00000AECFAA
:1001AA0080E090E0DC0105C031990AC00196A11DEA
:1001BA00B11D803C27E2920729E0A207B105A0F30E
:1001CA00803C9742A940B105C1F11092800082E0BB
:1001DA0080938100109285001092840080E090E064
:1001EA00DC010CC0319B11C0209184003091850044
:1001FA0021363A4E50F40196A11DB11D803C27E2EA
:10020A00920729E0A207B10568F3803C9742A9400A
:10021A00B105B1F08091840090918500A0E0B0E032
:10022A001092810081362AEE9207A105B10558F491
:10023A00B695A7959795879508958FEF9FEF08959F
:0C024A008EEF9FEF08958EEF9FEF089558
:10025600CF92DF92EF926B01E82EA0E0B0E02DC0C6
:100266009BB19F70807F892B8BB98BB181608BB9D5
:100276008BB182608BB900008BB18D7F8BB982E424
:100286008A95F1F700C05BB1F901849147FD808141
:1002960020E1829FC00111245F70852B8BB98BB141
:1002A60082608BB900008BB18D7F8BB983EF91E0B3
:1002B6000197F1F700C0000011964E2D96012A0F06
:1002C6003B1F411DB7FD4A95F901849147FD808189
:0C02D6008111C6CFEF90DF90CF9008950B
:1002E2009BB19F70282F207F922B9BB99BB19E7F41
:1002F2009BB99BB192609BB900009BB19D7F9BB95A
:1003020032E43A95F1F700C02BB130E1839FC0018E
:100312001124922F9F70892B8BB98BB182608BB97C
:1003220000008BB18D7F8BB983EF91E00197F1F7DC
:0603320000C00000089568
:10033800CF93DF9300D0CDB7DEB790E8998390ECE8
:100348009A83E62FF0E0319721E030E02C0F3D1F33
:10035800E20FF31F9081890F81500E94710131E2F1
:100368003A95F1F700000F900F90DF91CF91089523
:100378008FEF8AB985EA9EE00197F1F700C0000087
:1003880082E00E94710188E20E9471018CE00E9463
:10039800710186E00E94710181E00E94710183EF82
:0C03A80091E00197F1F700C000000895FB
:1003B400BB27FB015527AA27880F991FAA1FA4173B
:1003C40010F0A41B83955051B9F7A05DAA3308F02F
:1003D400A95DA193009779F7B111B1931192CB0163
:0403E4000C94F40180
:1003E800DC01FC01672F71917723E1F7329704C094
:1003F8007C916D9370836291AE17BF07C8F308951F
:1004080081E00E94710183EF91E00197F1F700C04C
:0A041800000080E80E9471010895C1
:10042200BB274A3031F4992322F4BDE2909581959D
:060432009F4F0C94DB015A
:1004380088B1816088B985E08A95F1F788B18E7FA7
:0404480088B90895D2
:08044C0087B1816087B90895B2
:040454000C94000004
:00000001FF
